{
  "contractName": "HelloWorld",
  "abi": [
    {
      "constant": true,
      "inputs": [],
      "name": "message",
      "outputs": [
        {
          "name": "",
          "type": "string"
        }
      ],
      "payable": false,
      "stateMutability": "view",
      "type": "function"
    },
    {
      "constant": false,
      "inputs": [],
      "name": "Hello",
      "outputs": [],
      "payable": false,
      "stateMutability": "nonpayable",
      "type": "function"
    },
    {
      "constant": true,
      "inputs": [],
      "name": "getMessage",
      "outputs": [
        {
          "name": "myString",
          "type": "string"
        }
      ],
      "payable": false,
      "stateMutability": "view",
      "type": "function"
    }
  ],
  "bytecode": "0x608060405234801561001057600080fd5b50610419806100206000396000f3fe608060405260043610610057576000357c0100000000000000000000000000000000000000000000000000000000900463ffffffff168063bcdfe0d51461005c578063ce6d41de14610073578063e21f37ce14610103575b600080fd5b34801561006857600080fd5b50610071610193565b005b34801561007f57600080fd5b50610088610208565b6040518080602001828103825283818151815260200191508051906020019080838360005b838110156100c85780820151818401526020810190506100ad565b50505050905090810190601f1680156100f55780820380516001836020036101000a031916815260200191505b509250505060405180910390f35b34801561010f57600080fd5b506101186102aa565b6040518080602001828103825283818151815260200191508051906020019080838360005b8381101561015857808201518184015260208101905061013d565b50505050905090810190601f1680156101855780820380516001836020036101000a031916815260200191505b509250505060405180910390f35b606060405190810160405280602581526020017f48656c6c6f20576f726c642066726f6d20457468657265756d20426c6f636b6381526020017f6861696e2100000000000000000000000000000000000000000000000000000081525060009080519060200190610205929190610348565b50565b606060008054600181600116156101000203166002900480601f0160208091040260200160405190810160405280929190818152602001828054600181600116156101000203166002900480156102a05780601f10610275576101008083540402835291602001916102a0565b820191906000526020600020905b81548152906001019060200180831161028357829003601f168201915b5050505050905090565b60008054600181600116156101000203166002900480601f0160208091040260200160405190810160405280929190818152602001828054600181600116156101000203166002900480156103405780601f1061031557610100808354040283529160200191610340565b820191906000526020600020905b81548152906001019060200180831161032357829003601f168201915b505050505081565b828054600181600116156101000203166002900490600052602060002090601f016020900481019282601f1061038957805160ff19168380011785556103b7565b828001600101855582156103b7579182015b828111156103b657825182559160200191906001019061039b565b5b5090506103c491906103c8565b5090565b6103ea91905b808211156103e65760008160009055506001016103ce565b5090565b9056fea165627a7a72305820c534f89738b0575f8841a645f1331cb7f2ce7cf65d3a23bab9ff9f01b16e64a90029",
  "source": "pragma solidity >=0.4.21 <0.6.0;\n\ncontract HelloWorld\n{\n    string public message;\n\n    function Hello() public  \n    {\n        message = \"Hello World from Ethereum Blockchain!\";\n    }\n\n    function getMessage() public view returns(string memory myString) \n    {\n        return message;\n    }\n}",
  "sourcePath": "/home/andremury/vhosts/ether-payment/truffle/contracts/HelloWorld.sol",
  "compiler": {
    "name": "solc",
    "version": "0.5.0+commit.1d4f565a.Emscripten.clang"
  },
  "schemaVersion": "3.0.8",
  "updatedAt": "2019-05-21T23:07:31.234Z",
  "devdoc": {
    "methods": {}
  },
  "userdoc": {
    "methods": {}
  }
}