{
  "contractName": "PaymentHolder",
  "abi": [
    {
      "inputs": [
        {
          "name": "passwd",
          "type": "string"
        }
      ],
      "payable": false,
      "stateMutability": "nonpayable",
      "type": "constructor",
      "signature": "constructor"
    },
    {
      "payable": true,
      "stateMutability": "payable",
      "type": "fallback"
    },
    {
      "constant": false,
      "inputs": [
        {
          "name": "paymentId",
          "type": "uint256"
        },
        {
          "name": "price",
          "type": "uint256"
        },
        {
          "name": "userId",
          "type": "uint256"
        },
        {
          "name": "paymentToken",
          "type": "string"
        },
        {
          "name": "user_wallet",
          "type": "address"
        }
      ],
      "name": "insertPaymentIntention",
      "outputs": [
        {
          "name": "paymentIndex",
          "type": "uint256"
        }
      ],
      "payable": false,
      "stateMutability": "nonpayable",
      "type": "function",
      "signature": "0x31038167"
    },
    {
      "constant": false,
      "inputs": [],
      "name": "pay",
      "outputs": [],
      "payable": true,
      "stateMutability": "payable",
      "type": "function",
      "signature": "0x1b9265b8"
    },
    {
      "constant": true,
      "inputs": [],
      "name": "getPayments",
      "outputs": [
        {
          "name": "",
          "type": "address[]"
        },
        {
          "name": "",
          "type": "uint256[]"
        }
      ],
      "payable": false,
      "stateMutability": "view",
      "type": "function",
      "signature": "0xd56bd142"
    },
    {
      "constant": true,
      "inputs": [
        {
          "name": "addr",
          "type": "address"
        }
      ],
      "name": "searchPayment",
      "outputs": [
        {
          "name": "found",
          "type": "bool"
        },
        {
          "name": "idx",
          "type": "uint256"
        }
      ],
      "payable": false,
      "stateMutability": "view",
      "type": "function",
      "signature": "0x5af8b662"
    },
    {
      "constant": true,
      "inputs": [],
      "name": "getContractBalance",
      "outputs": [
        {
          "name": "contractBalance",
          "type": "uint256"
        }
      ],
      "payable": false,
      "stateMutability": "view",
      "type": "function",
      "signature": "0x6f9fb98a"
    },
    {
      "constant": false,
      "inputs": [
        {
          "name": "passwd",
          "type": "string"
        },
        {
          "name": "amount",
          "type": "uint256"
        }
      ],
      "name": "retrievePayment",
      "outputs": [
        {
          "name": "res",
          "type": "bool"
        }
      ],
      "payable": true,
      "stateMutability": "payable",
      "type": "function",
      "signature": "0xea36ce23"
    },
    {
      "constant": false,
      "inputs": [
        {
          "name": "current",
          "type": "string"
        },
        {
          "name": "newPassphrase",
          "type": "string"
        }
      ],
      "name": "flushBalance",
      "outputs": [
        {
          "name": "res",
          "type": "string"
        }
      ],
      "payable": true,
      "stateMutability": "payable",
      "type": "function",
      "signature": "0xe269f011"
    },
    {
      "constant": true,
      "inputs": [
        {
          "name": "pwd",
          "type": "string"
        }
      ],
      "name": "checkPassphrase",
      "outputs": [
        {
          "name": "res",
          "type": "bool"
        }
      ],
      "payable": false,
      "stateMutability": "view",
      "type": "function",
      "signature": "0x0ce57d5b"
    }
  ],
  "bytecode": "0x608060405234801561001057600080fd5b50604051610f2d380380610f2d8339810180604052602081101561003357600080fd5b81019080805164010000000081111561004b57600080fd5b8281019050602081018481111561006157600080fd5b815185600182028301116401000000008211171561007e57600080fd5b5050929190505050606081905033600160006101000a81548173ffffffffffffffffffffffffffffffffffffffff021916908373ffffffffffffffffffffffffffffffffffffffff1602179055506002816040518082805190602001908083835b60208310151561010457805182526020820191506020810190506020830392506100df565b6001836020036101000a038019825116818451168082178552505050505050905001915050602060405180830381855afa158015610146573d6000803e3d6000fd5b5050506040513d602081101561015b57600080fd5b81019080805190602001909291905050506002819055505050610daa806101836000396000f3fe608060405260043610610083576000357c0100000000000000000000000000000000000000000000000000000000900463ffffffff1680631b9265b8146100f157806331038167146100fb5780635af8b662146102015780636f9fb98a14610271578063b59bb6211461029c578063d56bd142146102a6578063ea36ce231461035a575b600160009054906101000a900473ffffffffffffffffffffffffffffffffffffffff1673ffffffffffffffffffffffffffffffffffffffff163373ffffffffffffffffffffffffffffffffffffffff1614156100e6576100e16103f5565b6100ef565b6100ee610477565b5b005b6100f9610477565b005b34801561010757600080fd5b506101ff600480360360a081101561011e57600080fd5b810190808035906020019092919080359060200190929190803590602001909291908035906020019064010000000081111561015957600080fd5b82018360208201111561016b57600080fd5b8035906020019184600183028401116401000000008311171561018d57600080fd5b91908080601f016020809104026020016040519081016040528093929190818152602001838380828437600081840152601f19601f820116905080830192505050505050509192919290803573ffffffffffffffffffffffffffffffffffffffff1690602001909291905050506105cb565b005b34801561020d57600080fd5b506102506004803603602081101561022457600080fd5b81019080803573ffffffffffffffffffffffffffffffffffffffff16906020019092919050505061080f565b60405180831515151581526020018281526020019250505060405180910390f35b34801561027d57600080fd5b506102866108e7565b6040518082815260200191505060405180910390f35b6102a46103f5565b005b3480156102b257600080fd5b506102bb610906565b604051808060200180602001838103835285818151815260200191508051906020019060200280838360005b838110156103025780820151818401526020810190506102e7565b50505050905001838103825284818151815260200191508051906020019060200280838360005b83811015610344578082015181840152602081019050610329565b5050505090500194505050505060405180910390f35b6103db6004803603604081101561037057600080fd5b810190808035906020019064010000000081111561038d57600080fd5b82018360208201111561039f57600080fd5b803590602001918460018302840111640100000000831117156103c157600080fd5b909192939192939080359060200190929190505050610a70565b604051808215151515815260200191505060405180910390f35b600160009054906101000a900473ffffffffffffffffffffffffffffffffffffffff1673ffffffffffffffffffffffffffffffffffffffff166108fc3073ffffffffffffffffffffffffffffffffffffffff16319081150290604051600060405180830381858888f19350505050158015610474573d6000803e3d6000fd5b50565b6000806104833361080f565b809350819250505080158061050057508080156104ff57506000828154811015156104aa57fe5b906000526020600020906008020160070160009054906101000a900460ff16806104fe57506000828154811015156104de57fe5b906000526020600020906008020160070160019054906101000a900460ff165b5b5b1561056157600061051034610c5e565b90503373ffffffffffffffffffffffffffffffffffffffff166108fc829081150290604051600060405180830381858888f19350505050158015610558573d6000803e3d6000fd5b505050506105c9565b600160008381548110151561057257fe5b906000526020600020906008020160070160006101000a81548160ff021916908315150217905550600382908060018154018082558091505090600182039060005260206000200160009091929091909150555050505b565b6000806105d78361080f565b809250819350505081801561061757506000818154811015156105f657fe5b906000526020600020906008020160070160009054906101000a900460ff16155b1561065657600160008281548110151561062d57fe5b906000526020600020906008020160070160016101000a81548160ff0219169083151502179055505b61065e610c72565b878160200181815250508681604001818152505085816080018181525050848160a0018190525060008160e001901515908115158152505060008161010001901515908115158152505083816000019073ffffffffffffffffffffffffffffffffffffffff16908173ffffffffffffffffffffffffffffffffffffffff16815250503a8160600181815250506000819080600181540180825580915050906001820390600052602060002090600802016000909192909190915060008201518160000160006101000a81548173ffffffffffffffffffffffffffffffffffffffff021916908373ffffffffffffffffffffffffffffffffffffffff1602179055506020820151816001015560408201518160020155606082015181600301556080820151816004015560a08201518160050190805190602001906107a3929190610cd9565b5060c08201518160060190805190602001906107c0929190610cd9565b5060e08201518160070160006101000a81548160ff0219169083151502179055506101008201518160070160016101000a81548160ff0219169083151502179055505050505050505050505050565b6000806001600080549050101561082f57600080809050915091506108e2565b600060016000805490500390505b6000811015156108d6578373ffffffffffffffffffffffffffffffffffffffff1660008281548110151561086d57fe5b906000526020600020906008020160000160009054906101000a900473ffffffffffffffffffffffffffffffffffffffff1673ffffffffffffffffffffffffffffffffffffffff1614156108c85760018192509250506108e2565b80806001900391505061083d565b60008080905092509250505b915091565b60003073ffffffffffffffffffffffffffffffffffffffff1631905090565b606080606060008054905060405190808252806020026020018201604052801561093f5781602001602082028038833980820191505090505b50905060606000805490506040519080825280602002602001820160405280156109785781602001602082028038833980820191505090505b50905060008090505b600080549050811015610a635760008181548110151561099d57fe5b906000526020600020906008020160000160009054906101000a900473ffffffffffffffffffffffffffffffffffffffff1683828151811015156109dd57fe5b9060200190602002019073ffffffffffffffffffffffffffffffffffffffff16908173ffffffffffffffffffffffffffffffffffffffff1681525050600081815481101515610a2857fe5b9060005260206000209060080201600201548282815181101515610a4857fe5b90602001906020020181815250508080600101915050610981565b5081819350935050509091565b6000606084848080601f016020809104026020016040519081016040528093929190818152602001838380828437600081840152601f19601f8201169050808301925050505050505090506002546002826040518082805190602001908083835b602083101515610af65780518252602082019150602081019050602083039250610ad1565b6001836020036101000a038019825116818451168082178552505050505050905001915050602060405180830381855afa158015610b38573d6000803e3d6000fd5b5050506040513d6020811015610b4d57600080fd5b8101908080519060200190929190505050148015610bb85750600160009054906101000a900473ffffffffffffffffffffffffffffffffffffffff1673ffffffffffffffffffffffffffffffffffffffff163373ffffffffffffffffffffffffffffffffffffffff16145b15610c5157823073ffffffffffffffffffffffffffffffffffffffff1631101515610c5057600160009054906101000a900473ffffffffffffffffffffffffffffffffffffffff1673ffffffffffffffffffffffffffffffffffffffff166108fc849081150290604051600060405180830381858888f19350505050158015610c45573d6000803e3d6000fd5b506001915050610c57565b5b60009150505b9392505050565b60008060023a028303905080915050919050565b61012060405190810160405280600073ffffffffffffffffffffffffffffffffffffffff1681526020016000815260200160008152602001600081526020016000815260200160608152602001606081526020016000151581526020016000151581525090565b828054600181600116156101000203166002900490600052602060002090601f016020900481019282601f10610d1a57805160ff1916838001178555610d48565b82800160010185558215610d48579182015b82811115610d47578251825591602001919060010190610d2c565b5b509050610d559190610d59565b5090565b610d7b91905b80821115610d77576000816000905550600101610d5f565b5090565b9056fea165627a7a723058208283016e3b0d2cbf6380e488f3eb7e653513ddee50d27a5061a716b9cedcafe60029",
  "source": "pragma solidity >=0.4.21 <0.6.0;\n\ncontract PaymentHolder{\n\n\n    struct Payment {\n        address payable user_wallet;\n        uint256 paymentId;\n        uint256 price;\n        uint256 gasUsed;\n        uint256 userId;\n        string  paymentToken;\n        string  timestamp;\n        bool    confirmed;\n        bool    canceled;\n    }\n\n    Payment[] payments;\n    address payable owner;\n    bytes32 private passphrase;\n    uint256[] confirmedPayments;\n\n\n    constructor (string memory passwd) public\n    {\n        bytes memory _passwd = bytes(passwd);\n        owner = msg.sender;\n        passphrase = sha256(_passwd);\n    }\n\n    function insertPaymentIntention\n        (uint256 paymentId, uint256 price, uint userId, string memory paymentToken, address payable user_wallet)\n        public\n    {\n        bool found;\n        uint idx;\n        (found, idx) = searchPayment(user_wallet);\n        if(found && !payments[idx].confirmed) payments[idx].canceled = true;\n\n        Payment memory p;\n        p.paymentId = paymentId;\n        p.price = price;\n        p.userId = userId;\n        p.paymentToken = paymentToken;\n        p.confirmed = false;\n        p.canceled = false;\n        p.user_wallet = user_wallet;\n        p.gasUsed = tx.gasprice;\n\n        payments.push(p);\n\n    }\n\n    function () external payable {\n        if (msg.sender == owner){\n            flushBalance();\n        }else{\n            pay();\n        }\n    }\n\n    function pay() public payable\n    {\n        uint idx;\n        bool found;\n\n        (found, idx) = searchPayment(msg.sender);\n\n        if(!found || (found && (payments[idx].confirmed || payments[idx].canceled))){\n            uint256 amountToReturn = amountToReturn(msg.value);\n            msg.sender.transfer(amountToReturn);\n            return;\n        }\n        payments[idx].confirmed = true;\n        confirmedPayments.push(idx);\n\n    }\n\n    function getPayments() public view\n        returns (address[] memory, uint256[] memory)\n    {\n        address[] memory addr = new address[](payments.length);\n        uint[] memory prices = new uint[](payments.length);\n\n        for(uint i = 0; i < payments.length; i++){\n            addr[i] = payments[i].user_wallet;\n            prices[i] = payments[i].price;\n        }\n        return (addr, prices);\n    }\n\n    function searchPayment(address addr) public view\n        returns (bool found, uint idx)\n    {\n        if(payments.length < 1) return (false, 0);\n\n        uint i = payments.length - 1;\n\n        while(i>=0){\n            if((payments[i].user_wallet == addr)){\n                return (true, i);\n            }\n            i--;\n        }\n        return (false, 0);\n    }\n\n    function amountToReturn(uint256 amount) private view\n        returns (uint256 returnable)\n    {\n        uint256 realValue;\n        realValue = amount-tx.gasprice*2;\n\n        return (realValue);\n    }\n\n    function getContractBalance() public view\n        returns (uint256 contractBalance)\n    {\n        return address(this).balance;\n    }\n\n    function retrievePayment(string calldata passwd, uint256 amount) external payable\n        returns (bool res)\n    {\n        bytes memory _passwd = bytes(passwd);\n        if(sha256(_passwd) == passphrase && msg.sender == owner){\n            if(address(this).balance >= amount){\n                owner.transfer(amount);\n                return true;\n            }\n        }\n        return false;\n    }\n\n    function flushBalance() public payable\n    {\n        owner.transfer(address(this).balance);\n    }\n\n}",
  "sourcePath": "/home/andremury/vhosts/ether-payment/truffle/contracts/PaymentHolder.sol",
  "compiler": {
    "name": "solc",
    "version": "0.5.0+commit.1d4f565a.Emscripten.clang"
  },
  "schemaVersion": "3.0.8",
  "updatedAt": "2019-05-21T23:23:17.760Z",
  "devdoc": {
    "methods": {}
  },
  "userdoc": {
    "methods": {}
  }
}