{
  "contractName": "PaymentHolder",
  "abi": [
    {
      "inputs": [
        {
          "name": "passwd",
          "type": "string"
        }
      ],
      "payable": false,
      "stateMutability": "nonpayable",
      "type": "constructor",
      "signature": "constructor"
    },
    {
      "payable": true,
      "stateMutability": "payable",
      "type": "fallback"
    },
    {
      "constant": false,
      "inputs": [
        {
          "name": "paymentId",
          "type": "uint256"
        },
        {
          "name": "price",
          "type": "uint256"
        },
        {
          "name": "userId",
          "type": "uint256"
        },
        {
          "name": "paymentToken",
          "type": "string"
        },
        {
          "name": "user_wallet",
          "type": "address"
        }
      ],
      "name": "insertPaymentIntention",
      "outputs": [
        {
          "name": "paymentIndex",
          "type": "uint256"
        }
      ],
      "payable": false,
      "stateMutability": "nonpayable",
      "type": "function",
      "signature": "0x31038167"
    },
    {
      "constant": false,
      "inputs": [],
      "name": "pay",
      "outputs": [],
      "payable": true,
      "stateMutability": "payable",
      "type": "function",
      "signature": "0x1b9265b8"
    },
    {
      "constant": false,
      "inputs": [],
      "name": "getPayments",
      "outputs": [
        {
          "name": "",
          "type": "address[]"
        },
        {
          "name": "",
          "type": "uint256[]"
        }
      ],
      "payable": false,
      "stateMutability": "nonpayable",
      "type": "function",
      "signature": "0xd56bd142"
    },
    {
      "constant": false,
      "inputs": [],
      "name": "getContractBalance",
      "outputs": [
        {
          "name": "contractBalance",
          "type": "uint256"
        }
      ],
      "payable": false,
      "stateMutability": "nonpayable",
      "type": "function",
      "signature": "0x6f9fb98a"
    },
    {
      "constant": false,
      "inputs": [
        {
          "name": "passwd",
          "type": "string"
        },
        {
          "name": "amount",
          "type": "uint256"
        }
      ],
      "name": "retrievePayment",
      "outputs": [
        {
          "name": "res",
          "type": "bool"
        }
      ],
      "payable": true,
      "stateMutability": "payable",
      "type": "function",
      "signature": "0xea36ce23"
    },
    {
      "constant": false,
      "inputs": [
        {
          "name": "current",
          "type": "string"
        },
        {
          "name": "newPassphrase",
          "type": "string"
        }
      ],
      "name": "ressetPassphrase",
      "outputs": [
        {
          "name": "res",
          "type": "string"
        }
      ],
      "payable": false,
      "stateMutability": "nonpayable",
      "type": "function",
      "signature": "0x7daa2162"
    }
  ],
  "bytecode": "0x608060405234801561001057600080fd5b5060405161113c38038061113c8339810180604052602081101561003357600080fd5b81019080805164010000000081111561004b57600080fd5b8281019050602081018481111561006157600080fd5b815185600182028301116401000000008211171561007e57600080fd5b50509291905050506060819050600060038190555033600160006101000a81548173ffffffffffffffffffffffffffffffffffffffff021916908373ffffffffffffffffffffffffffffffffffffffff1602179055506002816040518082805190602001908083835b60208310151561010c57805182526020820191506020810190506020830392506100e7565b6001836020036101000a038019825116818451168082178552505050505050905001915050602060405180830381855afa15801561014e573d6000803e3d6000fd5b5050506040513d602081101561016357600080fd5b81019080805190602001909291905050506002819055505050610fb18061018b6000396000f3fe608060405260043610610078576000357c0100000000000000000000000000000000000000000000000000000000900463ffffffff1680631b9265b814610082578063310381671461008c5780636f9fb98a146101a65780637daa2162146101d1578063d56bd142146103a9578063ea36ce231461045d575b6100806104f8565b005b61008a6104f8565b005b34801561009857600080fd5b50610190600480360360a08110156100af57600080fd5b81019080803590602001909291908035906020019092919080359060200190929190803590602001906401000000008111156100ea57600080fd5b8201836020820111156100fc57600080fd5b8035906020019184600183028401116401000000008311171561011e57600080fd5b91908080601f016020809104026020016040519081016040528093929190818152602001838380828437600081840152601f19601f820116905080830192505050505050509192919290803573ffffffffffffffffffffffffffffffffffffffff16906020019092919050505061061a565b6040518082815260200191505060405180910390f35b3480156101b257600080fd5b506101bb6107b6565b6040518082815260200191505060405180910390f35b3480156101dd57600080fd5b5061032e600480360360408110156101f457600080fd5b810190808035906020019064010000000081111561021157600080fd5b82018360208201111561022357600080fd5b8035906020019184600183028401116401000000008311171561024557600080fd5b91908080601f016020809104026020016040519081016040528093929190818152602001838380828437600081840152601f19601f820116905080830192505050505050509192919290803590602001906401000000008111156102a857600080fd5b8201836020820111156102ba57600080fd5b803590602001918460018302840111640100000000831117156102dc57600080fd5b91908080601f016020809104026020016040519081016040528093929190818152602001838380828437600081840152601f19601f8201169050808301925050505050505091929192905050506107d0565b6040518080602001828103825283818151815260200191508051906020019080838360005b8381101561036e578082015181840152602081019050610353565b50505050905090810190601f16801561039b5780820380516001836020036101000a031916815260200191505b509250505060405180910390f35b3480156103b557600080fd5b506103be610a06565b604051808060200180602001838103835285818151815260200191508051906020019060200280838360005b838110156104055780820151818401526020810190506103ea565b50505050905001838103825284818151815260200191508051906020019060200280838360005b8381101561044757808201518184015260208101905061042c565b5050505090500194505050505060405180910390f35b6104de6004803603604081101561047357600080fd5b810190808035906020019064010000000081111561049057600080fd5b8201836020820111156104a257600080fd5b803590602001918460018302840111640100000000831117156104c457600080fd5b909192939192939080359060200190929190505050610b80565b604051808215151515815260200191505060405180910390f35b6000806105053334610d69565b809350819250505080151561058057600061051f34610e5e565b90503373ffffffffffffffffffffffffffffffffffffffff166108fc829081150290604051600060405180830381858888f19350505050158015610567573d6000803e3d6000fd5b5080600360008282540392505081905550505050610618565b600160008381548110151561059157fe5b906000526020600020906008020160070160006101000a81548160ff02191690831515021790555060048290806001815401808255809150509060018203906000526020600020016000909192909190915055506000828154811015156105f457fe5b90600052602060002090600802016002015460036000828254019250508190555050505b565b6000610624610e82565b868160200181815250508581604001818152505084816080018181525050838160a0018190525060008160e001901515908115158152505082816000019073ffffffffffffffffffffffffffffffffffffffff16908173ffffffffffffffffffffffffffffffffffffffff16815250503a8160600181815250503a60036000828254039250508190555060016000829080600181540180825580915050906001820390600052602060002090600802016000909192909190915060008201518160000160006101000a81548173ffffffffffffffffffffffffffffffffffffffff021916908373ffffffffffffffffffffffffffffffffffffffff1602179055506020820151816001015560408201518160020155606082015181600301556080820151816004015560a0820151816005019080519060200190610769929190610ee0565b5060c0820151816006019080519060200190610786929190610ee0565b5060e08201518160070160006101000a81548160ff02191690831515021790555050500391505095945050505050565b60003a600360008282540392505081905550600354905090565b6060600160009054906101000a900473ffffffffffffffffffffffffffffffffffffffff1673ffffffffffffffffffffffffffffffffffffffff163373ffffffffffffffffffffffffffffffffffffffff161480156108cf57506002546002846040518082805190602001908083835b6020831015156108655780518252602082019150602081019050602083039250610840565b6001836020036101000a038019825116818451168082178552505050505050905001915050602060405180830381855afa1580156108a7573d6000803e3d6000fd5b5050506040513d60208110156108bc57600080fd5b8101908080519060200190929190505050145b156109b7576002826040518082805190602001908083835b60208310151561090c57805182526020820191506020810190506020830392506108e7565b6001836020036101000a038019825116818451168082178552505050505050905001915050602060405180830381855afa15801561094e573d6000803e3d6000fd5b5050506040513d602081101561096357600080fd5b81019080805190602001909291905050506002819055506040805190810160405280601e81526020017f50617373776f7264206368616e676564207375636365737366756c6c792e00008152509050610a00565b3a6003600082825403925050819055506040805190810160405280601e81526020017f50617373776f7264206f72206163636f756e74206172652077726f6e672e000081525090505b92915050565b6060806060600080549050604051908082528060200260200182016040528015610a3f5781602001602082028038833980820191505090505b5090506060600080549050604051908082528060200260200182016040528015610a785781602001602082028038833980820191505090505b50905060008090505b600080549050811015610b6357600081815481101515610a9d57fe5b906000526020600020906008020160000160009054906101000a900473ffffffffffffffffffffffffffffffffffffffff168382815181101515610add57fe5b9060200190602002019073ffffffffffffffffffffffffffffffffffffffff16908173ffffffffffffffffffffffffffffffffffffffff1681525050600081815481101515610b2857fe5b9060005260206000209060080201600201548282815181101515610b4857fe5b90602001906020020181815250508080600101915050610a81565b503a60036000828254039250508190555081819350935050509091565b6000606084848080601f016020809104026020016040519081016040528093929190818152602001838380828437600081840152601f19601f8201169050808301925050505050505090506002546002826040518082805190602001908083835b602083101515610c065780518252602082019150602081019050602083039250610be1565b6001836020036101000a038019825116818451168082178552505050505050905001915050602060405180830381855afa158015610c48573d6000803e3d6000fd5b5050506040513d6020811015610c5d57600080fd5b8101908080519060200190929190505050148015610cc85750600160009054906101000a900473ffffffffffffffffffffffffffffffffffffffff1673ffffffffffffffffffffffffffffffffffffffff163373ffffffffffffffffffffffffffffffffffffffff16145b15610d4c5782600354101515610d4b57600160009054906101000a900473ffffffffffffffffffffffffffffffffffffffff1673ffffffffffffffffffffffffffffffffffffffff166108fc849081150290604051600060405180830381858888f19350505050158015610d40573d6000803e3d6000fd5b506001915050610d62565b5b3a60036000828254039250508190555060009150505b9392505050565b600080600060016000805490500390505b600081101515610e3b578473ffffffffffffffffffffffffffffffffffffffff16600082815481101515610daa57fe5b906000526020600020906008020160000160009054906101000a900473ffffffffffffffffffffffffffffffffffffffff1673ffffffffffffffffffffffffffffffffffffffff16148015610e1e575083600082815481101515610e0a57fe5b906000526020600020906008020160020154145b15610e30576001819250925050610e57565b600181039050610d7a565b3a60036000828254039250508190555060008080905092509250505b9250929050565b60008060023a02830390503a60036000828254039250508190555080915050919050565b61010060405190810160405280600073ffffffffffffffffffffffffffffffffffffffff1681526020016000815260200160008152602001600081526020016000815260200160608152602001606081526020016000151581525090565b828054600181600116156101000203166002900490600052602060002090601f016020900481019282601f10610f2157805160ff1916838001178555610f4f565b82800160010185558215610f4f579182015b82811115610f4e578251825591602001919060010190610f33565b5b509050610f5c9190610f60565b5090565b610f8291905b80821115610f7e576000816000905550600101610f66565b5090565b9056fea165627a7a72305820b34fe52e240a970f33951138ba494a1352495cc5cdf30345ab93589d35e0f0a90029",
  "source": "pragma solidity >=0.4.21 <0.6.0;\n\ncontract PaymentHolder{\n\n\n    struct Payment {\n        address payable user_wallet;\n        uint256 paymentId;\n        uint256 price;\n        uint256 gasUsed;\n        uint256 userId;\n        string  paymentToken;\n        string  timestamp;\n        bool    confirmed;\n\n    }\n\n    Payment[] payments;\n    address payable owner;\n    bytes32 passphrase;\n    uint256 balance;\n    uint256[] confirmedPayments;\n\n\n    constructor (string memory passwd) public\n    {\n        bytes memory _passwd = bytes(passwd);\n        balance = 0;\n        owner = msg.sender;\n        passphrase = sha256(_passwd);\n    }\n\n    function insertPaymentIntention\n        (uint256 paymentId, uint256 price, uint userId, string memory paymentToken, address payable user_wallet)\n        public returns (uint paymentIndex)\n    {\n        Payment memory p;\n        p.paymentId = paymentId;\n        p.price = price;\n        p.userId = userId;\n        p.paymentToken = paymentToken;\n        p.confirmed = false;\n        p.user_wallet = user_wallet;\n        p.gasUsed = tx.gasprice;\n\n        balance -= tx.gasprice;\n\n        return (payments.push(p) - 1);\n    }\n\n    function () external payable {\n        pay();\n    }\n\n    function pay() public payable\n    {\n        uint idx;\n        bool found;\n\n        (found, idx) = searchPayment(msg.sender, msg.value);\n\n        if(!found){\n            uint256 amountToReturn = amountToReturn(msg.value);\n            msg.sender.transfer(amountToReturn);\n            balance -= amountToReturn;\n            return;\n        }\n        payments[idx].confirmed = true;\n        confirmedPayments.push(idx);\n\n        balance += payments[idx].price;\n    }\n\n    function getPayments() public\n        returns (address[] memory, uint256[] memory)\n    {\n        address[] memory addr = new address[](payments.length);\n        uint[] memory prices = new uint[](payments.length);\n\n        for(uint i = 0; i < payments.length; i++){\n            addr[i] = payments[i].user_wallet;\n            prices[i] = payments[i].price;\n        }\n        balance -= tx.gasprice;\n        return (addr, prices);\n    }\n\n    function searchPayment(address addr, uint256 price) private\n        returns (bool found, uint idx)\n    {\n        uint i = payments.length - 1;\n\n        for(i; i >= 0; i -= 1){\n            if(payments[i].user_wallet == addr && payments[i].price == price){\n                return (true, i);\n            }\n        }\n        balance -= tx.gasprice;\n        return (false, 0);\n    }\n\n    function amountToReturn(uint256 amount) private\n        returns (uint256 returnable)\n    {\n        uint256 realValue;\n        realValue = amount-tx.gasprice*2;\n\n        balance -= tx.gasprice;\n        return (realValue);\n    }\n\n    function getContractBalance() public\n        returns (uint256 contractBalance)\n    {\n        balance -= tx.gasprice;\n        return balance;\n    }\n\n    function retrievePayment(string calldata passwd, uint256 amount) external payable\n        returns (bool res)\n    {\n        bytes memory _passwd = bytes(passwd);\n        if(sha256(_passwd) == passphrase && msg.sender == owner){\n            if(balance >= amount){\n                owner.transfer(amount);\n                return true;\n            }\n        }\n        balance -= tx.gasprice;\n        return false;\n    }\n\n    function ressetPassphrase(string memory current, string memory newPassphrase) public\n        returns (string memory res)\n    {\n        if(msg.sender == owner && sha256(bytes(current)) == passphrase){\n            passphrase = sha256(bytes(newPassphrase));\n            return (\"Password changed successfully.\");\n        }\n        balance -= tx.gasprice;\n        return (\"Password or account are wrong.\");\n    }\n\n}",
  "sourcePath": "/home/andremury/vhosts/ether-payment/truffle/contracts/PaymentHolder.sol",
  "compiler": {
    "name": "solc",
    "version": "0.5.0+commit.1d4f565a.Emscripten.clang"
  },
  "schemaVersion": "3.0.8",
  "updatedAt": "2019-05-07T04:02:46.591Z",
  "devdoc": {
    "methods": {}
  },
  "userdoc": {
    "methods": {}
  }
}