{
  "contractName": "PaymentHolder",
  "abi": [
    {
      "constant": false,
      "inputs": [],
      "name": "payAmount",
      "outputs": [
        {
          "name": "tax",
          "type": "uint256"
        },
        {
          "name": "paymentIdx",
          "type": "uint256"
        }
      ],
      "payable": false,
      "stateMutability": "nonpayable",
      "type": "constructor",
      "signature": "constructor"
    },
    {
      "constant": true,
      "inputs": [],
      "name": "getPayments",
      "outputs": [
        {
          "name": "",
          "type": "address[]"
        },
        {
          "name": "",
          "type": "uint256[]"
        }
      ],
      "payable": true,
      "stateMutability": "payable",
      "type": "fallback",
      "signature": "0xd56bd142"
    },
    {
      "constant": false,
      "inputs": [],
      "name": "pay",
      "outputs": [
        {
          "name": "tax",
          "type": "uint256"
        },
        {
          "name": "paymentIdx",
          "type": "uint256"
        }
      ],
      "payable": true,
      "stateMutability": "payable",
      "type": "function",
      "signature": "0x1b9265b8"
    },
    {
      "constant": true,
      "inputs": [],
      "name": "getPayments",
      "outputs": [
        {
          "name": "",
          "type": "address[]"
        },
        {
          "name": "",
          "type": "uint256[]"
        }
      ],
      "payable": false,
      "stateMutability": "view",
      "type": "function",
      "signature": "0xd56bd142"
    }
  ],
  "bytecode": "0x608060405234801561001057600080fd5b506103e9806100206000396000f3fe60806040526004361061004c576000357c0100000000000000000000000000000000000000000000000000000000900463ffffffff1680631b9265b814610058578063d56bd1421461007d575b610054610131565b5050005b610060610131565b604051808381526020018281526020019250505060405180910390f35b34801561008957600080fd5b5061009261019a565b604051808060200180602001838103835285818151815260200191508051906020019060200280838360005b838110156100d95780820151818401526020810190506100be565b50505050905001838103825284818151815260200191508051906020019060200280838360005b8381101561011b578082015181840152602081019050610100565b5050505090500194505050505060405180910390f35b60008061013c61038d565b33816000019073ffffffffffffffffffffffffffffffffffffffff16908173ffffffffffffffffffffffffffffffffffffffff1681525050348160200181815250506000600161018b83610304565b0390503a819350935050509091565b60608060606000805490506040519080825280602002602001820160405280156101d35781602001602082028038833980820191505090505b509050606060008054905060405190808252806020026020018201604052801561020c5781602001602082028038833980820191505090505b50905060008090505b6000805490508110156102f75760008181548110151561023157fe5b906000526020600020906002020160000160009054906101000a900473ffffffffffffffffffffffffffffffffffffffff16838281518110151561027157fe5b9060200190602002019073ffffffffffffffffffffffffffffffffffffffff16908173ffffffffffffffffffffffffffffffffffffffff16815250506000818154811015156102bc57fe5b90600052602060002090600202016001015482828151811015156102dc57fe5b90602001906020020181815250508080600101915050610215565b5081819350935050509091565b600080829080600181540180825580915050906001820390600052602060002090600202016000909192909190915060008201518160000160006101000a81548173ffffffffffffffffffffffffffffffffffffffff021916908373ffffffffffffffffffffffffffffffffffffffff1602179055506020820151816001015550509050919050565b6040805190810160405280600073ffffffffffffffffffffffffffffffffffffffff16815260200160008152509056fea165627a7a72305820ee05b10ec8fe2ac60cbc894779354c5caeac27d867fd8b2eac7e4ceee6d3bc820029",
  "source": "pragma solidity >=0.4.21 <0.6.0;\n\ncontract PaymentHolder{\n\n    struct Payment {\n        address addr;\n        uint256 amount;\n    }\n\n    Payment[] payments;\n\n    constructor () public {\n    }\n\n    function () external payable {\n        pay();\n    }\n\n    function pay() payable public \n        returns (uint tax, uint paymentIdx)\n    {\n        Payment memory p;\n        p.addr = msg.sender;\n        p.amount = msg.value;\n\n        uint idx = pushPayment(p) - 1;\n\n        return (tx.gasprice, idx);\n\n    }    \n\n    function pushPayment(Payment memory p) private returns (uint idx)\n    {\n        return payments.push(p);\n    }\n\n    function getPayments() public view \n        returns (address[] memory, uint256[] memory)\n    {\n        address[] memory addr = new address[](payments.length);\n        uint[] memory amounts = new uint[](payments.length);\n\n        for(uint i = 0; i < payments.length; i++){\n            addr[i] = payments[i].addr;\n            amounts[i] = payments[i].amount;\n        }\n\n        return (addr, amounts);\n    }\n}",
  "sourcePath": "/home/andremury/vhosts/ether-payment/truffle/contracts/PaymentHolder.sol",
  "compiler": {
    "name": "solc",
    "version": "0.5.0+commit.1d4f565a.Emscripten.clang"
  },
  "schemaVersion": "3.0.8",
  "updatedAt": "2019-05-03T05:38:44.844Z",
  "devdoc": {
    "methods": {}
  },
  "userdoc": {
    "methods": {}
  }
}