{
  "contractName": "Payment",
  "abi": [
    {
      "inputs": [],
      "payable": true,
      "stateMutability": "payable",
      "type": "constructor"
    },
    {
      "constant": false,
      "inputs": [
        {
          "name": "amount",
          "type": "uint256"
        },
        {
          "name": "nonce",
          "type": "uint256"
        },
        {
          "name": "signature",
          "type": "bytes"
        }
      ],
      "name": "claimPayment",
      "outputs": [],
      "payable": false,
      "stateMutability": "nonpayable",
      "type": "function"
    },
    {
      "constant": false,
      "inputs": [],
      "name": "kill",
      "outputs": [],
      "payable": false,
      "stateMutability": "nonpayable",
      "type": "function"
    }
  ],
  "bytecode": "0x60806040526104d1806100136000396000f3fe60806040526004361061004c576000357c0100000000000000000000000000000000000000000000000000000000900463ffffffff16806341c0e1b514610051578063a90ae88714610068575b600080fd5b34801561005d57600080fd5b50610066610144565b005b34801561007457600080fd5b506101426004803603606081101561008b57600080fd5b810190808035906020019092919080359060200190929190803590602001906401000000008111156100bc57600080fd5b8201836020820111156100ce57600080fd5b803590602001918460018302840111640100000000831117156100f057600080fd5b91908080601f016020809104026020016040519081016040528093929190818152602001838380828437600081840152601f19601f8201169050808301925050505050505091929192905050506101bb565b005b6000800160009054906101000a900473ffffffffffffffffffffffffffffffffffffffff1673ffffffffffffffffffffffffffffffffffffffff163373ffffffffffffffffffffffffffffffffffffffff161415156101a257600080fd5b3373ffffffffffffffffffffffffffffffffffffffff16ff5b6002600083815260200190815260200160002060009054906101000a900460ff161515156101e857600080fd5b60016002600084815260200190815260200160002060006101000a81548160ff02191690831515021790555060006102d333858530604051602001808573ffffffffffffffffffffffffffffffffffffffff1673ffffffffffffffffffffffffffffffffffffffff166c010000000000000000000000000281526014018481526020018381526020018273ffffffffffffffffffffffffffffffffffffffff1673ffffffffffffffffffffffffffffffffffffffff166c0100000000000000000000000002815260140194505050505060405160208183030381529060405280519060200120610389565b90506000800160009054906101000a900473ffffffffffffffffffffffffffffffffffffffff1673ffffffffffffffffffffffffffffffffffffffff1661031a82846103e1565b73ffffffffffffffffffffffffffffffffffffffff1614151561033c57600080fd5b3373ffffffffffffffffffffffffffffffffffffffff166108fc859081150290604051600060405180830381858888f19350505050158015610382573d6000803e3d6000fd5b5050505050565b60008160405160200180807f19457468657265756d205369676e6564204d6573736167653a0a333200000000815250601c01828152602001915050604051602081830303815290604052805190602001209050919050565b6000806000806103f085610468565b92509250925060018684848460405160008152602001604052604051808581526020018460ff1660ff1681526020018381526020018281526020019450505050506020604051602081039080840390855afa158015610453573d6000803e3d6000fd5b50505060206040510351935050505092915050565b60008060006041845114151561047d57600080fd5b6020840151915060408401519050606084015160001a9250828282925092509250919390925056fea165627a7a72305820a9e52ce6374617e0fe3eebe3eb925129e8bf732fd189d92dac0d37bcb45c5a730029",
  "source": "pragma solidity >=0.4.21 <0.6.0;\n\ncontract Payment{\n\n    struct Exchange{   \n        address renter;\n        address tenant;\n    }\n\n    Exchange wallets;\n\n    mapping(uint256 => bool) usedNonces;\n\n    constructor () public payable {}\n\n    function claimPayment(uint amount, uint nonce, bytes memory signature) public\n    {\n        require(!usedNonces[nonce]);\n        usedNonces[nonce] = true;\n\n        bytes32 message = prefixed(keccak256(abi.encodePacked(msg.sender, amount, nonce, this)));\n\n        require(recoverSigner(message, signature) == wallets.renter);\n\n        msg.sender.transfer(amount);\n    }\n\n    function kill() public\n    {\n        require(msg.sender == wallets.renter);\n        selfdestruct(msg.sender);\n    }\n\n    //Método de assinatura\n    function splitSignature(bytes memory sig) internal pure \n        returns (uint8 v, bytes32 r, bytes32 s)\n    {\n        require(sig.length == 65);\n\n        assembly {\n            //Primeiros 32 bytes depois do prefix\n            r := mload(add(sig, 32))\n            //Segundos 32 bytes\n            s := mload(add(sig, 64))\n            //Último byte (primeiro byte depois dos últimos 32 bytes)\n            v := byte(0, mload(add(sig, 96)))\n        }\n        return (v, r, s);\n    }\n\n    function recoverSigner(bytes32 message, bytes memory sig) internal pure \n        returns(address)\n    {\n        (uint8 v, bytes32 r, bytes32 s) = splitSignature(sig);\n\n        return ecrecover(message, v, r, s);\n    }\n\n    //Cria uma hash prefixada para trataro comportamento de eth_sign.\n    function prefixed(bytes32 hash) internal pure returns (bytes32) {\n        return keccak256(abi.encodePacked(\"\\x19Ethereum Signed Message:\\n32\", hash));\n    }\n\n}",
  "sourcePath": "/home/andremury/vhosts/ether-payment/truffle/contracts/Payment.sol",
  "compiler": {
    "name": "solc",
    "version": "0.5.0+commit.1d4f565a.Emscripten.clang"
  },
  "schemaVersion": "3.0.8",
  "updatedAt": "2019-05-07T04:25:27.717Z",
  "devdoc": {
    "methods": {}
  },
  "userdoc": {
    "methods": {}
  }
}