{
  "contractName": "PaymentHolder",
  "abi": [
    {
      "inputs": [],
      "payable": false,
      "stateMutability": "nonpayable",
      "type": "constructor"
    },
    {
      "payable": true,
      "stateMutability": "payable",
      "type": "fallback"
    },
    {
      "constant": false,
      "inputs": [
        {
          "name": "price",
          "type": "uint256"
        },
        {
          "name": "user_wallet",
          "type": "address"
        }
      ],
      "name": "insertPaymentIntention",
      "outputs": [],
      "payable": false,
      "stateMutability": "nonpayable",
      "type": "function"
    },
    {
      "constant": false,
      "inputs": [],
      "name": "pay",
      "outputs": [],
      "payable": true,
      "stateMutability": "payable",
      "type": "function"
    },
    {
      "constant": true,
      "inputs": [
        {
          "name": "status",
          "type": "uint256"
        }
      ],
      "name": "getPayments",
      "outputs": [
        {
          "name": "",
          "type": "address[]"
        },
        {
          "name": "",
          "type": "uint256[]"
        }
      ],
      "payable": false,
      "stateMutability": "view",
      "type": "function"
    },
    {
      "constant": true,
      "inputs": [
        {
          "name": "addr",
          "type": "address"
        }
      ],
      "name": "searchPayment",
      "outputs": [
        {
          "name": "found",
          "type": "bool"
        },
        {
          "name": "idx",
          "type": "uint256"
        },
        {
          "name": "value",
          "type": "uint256"
        }
      ],
      "payable": false,
      "stateMutability": "view",
      "type": "function"
    },
    {
      "constant": true,
      "inputs": [],
      "name": "getContractBalance",
      "outputs": [
        {
          "name": "contractBalance",
          "type": "uint256"
        }
      ],
      "payable": false,
      "stateMutability": "view",
      "type": "function"
    },
    {
      "constant": false,
      "inputs": [],
      "name": "flushBalance",
      "outputs": [],
      "payable": true,
      "stateMutability": "payable",
      "type": "function"
    }
  ],
  "bytecode": "0x608060405234801561001057600080fd5b5033600160006101000a81548173ffffffffffffffffffffffffffffffffffffffff021916908373ffffffffffffffffffffffffffffffffffffffff160217905550610ec8806100616000396000f3fe608060405260043610610078576000357c0100000000000000000000000000000000000000000000000000000000900463ffffffff1680631b9265b8146100e65780635af8b662146100f05780636f9fb98a14610167578063b59bb62114610192578063cb2079c81461019c578063fe365199146101f7575b600160009054906101000a900473ffffffffffffffffffffffffffffffffffffffff1673ffffffffffffffffffffffffffffffffffffffff163373ffffffffffffffffffffffffffffffffffffffff1614156100db576100d66102cf565b6100e4565b6100e3610351565b5b005b6100ee610351565b005b3480156100fc57600080fd5b5061013f6004803603602081101561011357600080fd5b81019080803573ffffffffffffffffffffffffffffffffffffffff1690602001909291905050506104d8565b6040518084151515158152602001838152602001828152602001935050505060405180910390f35b34801561017357600080fd5b5061017c6105ef565b6040518082815260200191505060405180910390f35b61019a6102cf565b005b3480156101a857600080fd5b506101f5600480360360408110156101bf57600080fd5b8101908080359060200190929190803573ffffffffffffffffffffffffffffffffffffffff16906020019092919050505061060e565b005b34801561020357600080fd5b506102306004803603602081101561021a57600080fd5b81019080803590602001909291905050506107d2565b604051808060200180602001838103835285818151815260200191508051906020019060200280838360005b8381101561027757808201518184015260208101905061025c565b50505050905001838103825284818151815260200191508051906020019060200280838360005b838110156102b957808201518184015260208101905061029e565b5050505090500194505050505060405180910390f35b600160009054906101000a900473ffffffffffffffffffffffffffffffffffffffff1673ffffffffffffffffffffffffffffffffffffffff166108fc3073ffffffffffffffffffffffffffffffffffffffff16319081150290604051600060405180830381858888f1935050505015801561034e573d6000803e3d6000fd5b50565b600080600061035f336104d8565b80945081955082935050505080158061037757508134105b156103d957600061038734610a3f565b90503373ffffffffffffffffffffffffffffffffffffffff166108fc829081150290604051600060405180830381858888f193505050501580156103cf573d6000803e3d6000fd5b50505050506104d6565b60026000848154811015156103ea57fe5b9060005260206000209060040201908060018154018082558091505090600182039060005260206000209060040201600090919290919091506000820160009054906101000a900473ffffffffffffffffffffffffffffffffffffffff168160000160006101000a81548173ffffffffffffffffffffffffffffffffffffffff021916908373ffffffffffffffffffffffffffffffffffffffff1602179055506001820154816001015560028201548160020155600382018160030190805460018160011615610100020316600290046104c5929190610c51565b505050506104d283610a53565b5050505b565b6000806000600160008054905010156105015760008060008191508090509250925092506105e8565b600060016000805490500390505b6000811015156105d5578473ffffffffffffffffffffffffffffffffffffffff1660008281548110151561053f57fe5b906000526020600020906004020160000160009054906101000a900473ffffffffffffffffffffffffffffffffffffffff1673ffffffffffffffffffffffffffffffffffffffff1614156105c757600181670de0b6b3a76400006000848154811015156105a857fe5b90600052602060002090600402016001015402935093509350506105e8565b80806001900391505061050f565b6000806000819150809050935093509350505b9193909250565b60003073ffffffffffffffffffffffffffffffffffffffff1631905090565b600080600061061c846104d8565b809350819450829550505050610630610cd8565b8581602001818152505084816000019073ffffffffffffffffffffffffffffffffffffffff16908173ffffffffffffffffffffffffffffffffffffffff16815250503a8160400181815250508315610720578060008481548110151561069257fe5b906000526020600020906004020160008201518160000160006101000a81548173ffffffffffffffffffffffffffffffffffffffff021916908373ffffffffffffffffffffffffffffffffffffffff16021790555060208201518160010155604082015181600201556060820151816003019080519060200190610717929190610d17565b509050506107ca565b6000819080600181540180825580915050906001820390600052602060002090600402016000909192909190915060008201518160000160006101000a81548173ffffffffffffffffffffffffffffffffffffffff021916908373ffffffffffffffffffffffffffffffffffffffff160217905550602082015181600101556040820151816002015560608201518160030190805190602001906107c5929190610d17565b505050505b505050505050565b606080606060008054905060405190808252806020026020018201604052801561080b5781602001602082028038833980820191505090505b50905060606000805490506040519080825280602002602001820160405280156108445781602001602082028038833980820191505090505b509050600185141561093e5760008090505b6000805490508110156109385760008181548110151561087257fe5b906000526020600020906004020160000160009054906101000a900473ffffffffffffffffffffffffffffffffffffffff1683828151811015156108b257fe5b9060200190602002019073ffffffffffffffffffffffffffffffffffffffff16908173ffffffffffffffffffffffffffffffffffffffff16815250506000818154811015156108fd57fe5b906000526020600020906004020160010154828281518110151561091d57fe5b90602001906020020181815250508080600101915050610856565b50610a32565b6002851415610a315760008090505b600080549050811015610a2f5760028181548110151561096957fe5b906000526020600020906004020160000160009054906101000a900473ffffffffffffffffffffffffffffffffffffffff1683828151811015156109a957fe5b9060200190602002019073ffffffffffffffffffffffffffffffffffffffff16908173ffffffffffffffffffffffffffffffffffffffff16815250506002818154811015156109f457fe5b9060005260206000209060040201600101548282815181101515610a1457fe5b9060200190602002018181525050808060010191505061094d565b505b5b8181935093505050915091565b60008060023a028303905080915050919050565b60008054905081108015610a6f57506001600080549050038114155b15610bd0576000600160008054905003815481101515610a8b57fe5b9060005260206000209060040201600082815481101515610aa857fe5b90600052602060002090600402016000820160009054906101000a900473ffffffffffffffffffffffffffffffffffffffff168160000160006101000a81548173ffffffffffffffffffffffffffffffffffffffff021916908373ffffffffffffffffffffffffffffffffffffffff160217905550600182015481600101556002820154816002015560038201816003019080546001816001161561010002031660029004610b58929190610c51565b509050506000600160008054905003815481101515610b7357fe5b9060005260206000209060040201600080820160006101000a81549073ffffffffffffffffffffffffffffffffffffffff021916905560018201600090556002820160009055600382016000610bc99190610d97565b5050610c38565b600081815481101515610bdf57fe5b9060005260206000209060040201600080820160006101000a81549073ffffffffffffffffffffffffffffffffffffffff021916905560018201600090556002820160009055600382016000610c359190610d97565b50505b6000805480919060019003610c4d9190610ddf565b5050565b828054600181600116156101000203166002900490600052602060002090601f016020900481019282601f10610c8a5780548555610cc7565b82800160010185558215610cc757600052602060002091601f016020900482015b82811115610cc6578254825591600101919060010190610cab565b5b509050610cd49190610e11565b5090565b608060405190810160405280600073ffffffffffffffffffffffffffffffffffffffff1681526020016000815260200160008152602001606081525090565b828054600181600116156101000203166002900490600052602060002090601f016020900481019282601f10610d5857805160ff1916838001178555610d86565b82800160010185558215610d86579182015b82811115610d85578251825591602001919060010190610d6a565b5b509050610d939190610e11565b5090565b50805460018160011615610100020316600290046000825580601f10610dbd5750610ddc565b601f016020900490600052602060002090810190610ddb9190610e11565b5b50565b815481835581811115610e0c57600402816004028360005260206000209182019101610e0b9190610e36565b5b505050565b610e3391905b80821115610e2f576000816000905550600101610e17565b5090565b90565b610e9991905b80821115610e9557600080820160006101000a81549073ffffffffffffffffffffffffffffffffffffffff021916905560018201600090556002820160009055600382016000610e8c9190610d97565b50600401610e3c565b5090565b9056fea165627a7a72305820aa3e3781a7318b38cc875380980a9f38ca5d3c21a7c8298aee48299d317055e60029",
  "source": "pragma solidity >=0.4.21 <0.6.0;\n\ncontract PaymentHolder{\n\n\n    struct Payment {\n        address payable user_wallet;\n        uint256 price;\n        uint256 gasUsed;\n        string  timestamp;\n    }\n\n    Payment[] payments;\n    address payable owner;\n    Payment[] confirmedPayments;\n\n\n    constructor () public\n    {\n        owner = msg.sender;\n    }\n\n    function insertPaymentIntention\n        (uint256 price, address payable user_wallet)\n        public\n    {\n        bool found;\n        uint idx;\n        uint value;\n        (found, idx, value) = searchPayment(user_wallet);\n\n\n        Payment memory p;\n        p.price = price;\n        p.user_wallet = user_wallet;\n        p.gasUsed = tx.gasprice;\n\n        if(found){\n            payments[idx] = p;\n        }else{\n            payments.push(p);\n        }\n\n    }\n\n    function () external payable {\n        if (msg.sender == owner){\n            flushBalance();\n        }else{\n            pay();\n        }\n    }\n\n    function pay() public payable\n    {\n        uint idx;\n        uint value;\n        bool found;\n\n        (found, idx, value) = searchPayment(msg.sender);\n\n        if(!found || msg.value < value){\n            uint256 amountToReturn = amountToReturn(msg.value);\n            msg.sender.transfer(amountToReturn);\n            return;\n        }\n\n            confirmedPayments.push(payments[idx]);\n            removePaidPayment(idx);\n        return;\n    }\n\n    function getPayments(uint status) public view\n        returns (address[] memory, uint256[] memory)\n    {\n        address[] memory addr = new address[](payments.length);\n        uint[] memory prices = new uint[](payments.length);\n        //1 open\n        if(status == 1){\n            for(uint i = 0; i < payments.length; i++){\n                addr[i] = payments[i].user_wallet;\n                prices[i] = payments[i].price;\n            }\n        //2 confirmed\n        }else if(status == 2){\n            for(uint i = 0; i < payments.length; i++){\n                addr[i] = confirmedPayments[i].user_wallet;\n                prices[i] = confirmedPayments[i].price;\n            }\n        }\n        return (addr, prices);\n    }\n\n    function searchPayment(address addr) public view\n        returns (bool found, uint idx, uint value)\n    {\n        if(payments.length < 1) return (false, 0, 0);\n\n        uint i = payments.length - 1;\n\n        while(i>=0){\n            if((payments[i].user_wallet == addr)){\n                return (true, i, payments[i].price*(10**18));\n            }\n            i--;\n        }\n        return (false, 0, 0);\n    }\n\n    function amountToReturn(uint256 amount) private view\n        returns (uint256 returnable)\n    {\n        uint256 realValue;\n        realValue = amount-tx.gasprice*2;\n\n        return (realValue);\n    }\n\n    function getContractBalance() public view\n        returns (uint256 contractBalance)\n    {\n        return address(this).balance;\n    }\n\n    function flushBalance() public payable\n    {\n        owner.transfer(address(this).balance);\n    }\n\n    function removePaidPayment(uint idx) private\n    {\n        if(idx < payments.length && idx != payments.length - 1){\n            payments[idx] = payments[payments.length - 1];\n            delete payments[payments.length - 1];\n        }else{\n            delete payments[idx];\n        }\n        payments.length--;\n    }\n\n}",
  "sourcePath": "/home/mury/vhosts/ether-payment/truffle/contracts/PaymentHolder.sol",
  "compiler": {
    "name": "solc",
    "version": "0.5.0+commit.1d4f565a.Emscripten.clang"
  },
  "schemaVersion": "3.0.9",
  "updatedAt": "2019-05-28T16:38:09.356Z",
  "devdoc": {
    "methods": {}
  },
  "userdoc": {
    "methods": {}
  }
}