{
  "contractName": "PaymentHolder",
  "abi": [
    {
      "inputs": [
        {
          "name": "passwd",
          "type": "string"
        }
      ],
      "payable": false,
      "stateMutability": "nonpayable",
      "type": "constructor",
      "signature": "constructor"
    },
    {
      "payable": true,
      "stateMutability": "payable",
      "type": "fallback"
    },
    {
      "constant": false,
      "inputs": [
        {
          "name": "paymentId",
          "type": "uint256"
        },
        {
          "name": "price",
          "type": "uint256"
        },
        {
          "name": "userId",
          "type": "uint256"
        },
        {
          "name": "paymentToken",
          "type": "string"
        },
        {
          "name": "user_wallet",
          "type": "address"
        }
      ],
      "name": "insertPaymentIntention",
      "outputs": [
        {
          "name": "paymentIndex",
          "type": "uint256"
        }
      ],
      "payable": false,
      "stateMutability": "nonpayable",
      "type": "function",
      "signature": "0x31038167"
    },
    {
      "constant": false,
      "inputs": [],
      "name": "pay",
      "outputs": [],
      "payable": true,
      "stateMutability": "payable",
      "type": "function",
      "signature": "0x1b9265b8"
    },
    {
      "constant": true,
      "inputs": [],
      "name": "getPayments",
      "outputs": [
        {
          "name": "",
          "type": "address[]"
        },
        {
          "name": "",
          "type": "uint256[]"
        }
      ],
      "payable": false,
      "stateMutability": "view",
      "type": "function",
      "signature": "0xd56bd142"
    },
    {
      "constant": true,
      "inputs": [
        {
          "name": "addr",
          "type": "address"
        }
      ],
      "name": "searchPayment",
      "outputs": [
        {
          "name": "found",
          "type": "bool"
        },
        {
          "name": "idx",
          "type": "uint256"
        }
      ],
      "payable": false,
      "stateMutability": "view",
      "type": "function",
      "signature": "0x5af8b662"
    },
    {
      "constant": true,
      "inputs": [],
      "name": "getContractBalance",
      "outputs": [
        {
          "name": "contractBalance",
          "type": "uint256"
        }
      ],
      "payable": false,
      "stateMutability": "view",
      "type": "function",
      "signature": "0x6f9fb98a"
    },
    {
      "constant": false,
      "inputs": [
        {
          "name": "passwd",
          "type": "string"
        },
        {
          "name": "amount",
          "type": "uint256"
        }
      ],
      "name": "retrievePayment",
      "outputs": [
        {
          "name": "res",
          "type": "bool"
        }
      ],
      "payable": true,
      "stateMutability": "payable",
      "type": "function",
      "signature": "0xea36ce23"
    },
    {
      "constant": false,
      "inputs": [
        {
          "name": "current",
          "type": "string"
        },
        {
          "name": "newPassphrase",
          "type": "string"
        }
      ],
      "name": "ressetPassphrase",
      "outputs": [
        {
          "name": "res",
          "type": "string"
        }
      ],
      "payable": false,
      "stateMutability": "nonpayable",
      "type": "function",
      "signature": "0x7daa2162"
    },
    {
      "constant": true,
      "inputs": [
        {
          "name": "pwd",
          "type": "string"
        }
      ],
      "name": "checkPassphrase",
      "outputs": [
        {
          "name": "res",
          "type": "bool"
        }
      ],
      "payable": false,
      "stateMutability": "view",
      "type": "function",
      "signature": "0x0ce57d5b"
    }
  ],
  "bytecode": "0x608060405234801561001057600080fd5b506040516114223803806114228339810180604052602081101561003357600080fd5b81019080805164010000000081111561004b57600080fd5b8281019050602081018481111561006157600080fd5b815185600182028301116401000000008211171561007e57600080fd5b50509291905050506060819050600060038190555033600160006101000a81548173ffffffffffffffffffffffffffffffffffffffff021916908373ffffffffffffffffffffffffffffffffffffffff1602179055506002816040518082805190602001908083835b60208310151561010c57805182526020820191506020810190506020830392506100e7565b6001836020036101000a038019825116818451168082178552505050505050905001915050602060405180830381855afa15801561014e573d6000803e3d6000fd5b5050506040513d602081101561016357600080fd5b810190808051906020019092919050505060028190555050506112978061018b6000396000f3fe60806040526004361061008e576000357c0100000000000000000000000000000000000000000000000000000000900463ffffffff1680630ce57d5b146100985780631b9265b81461017857806331038167146101825780635af8b662146102885780636f9fb98a146102f85780637daa216214610323578063d56bd142146104fb578063ea36ce23146105af575b61009661064a565b005b3480156100a457600080fd5b5061015e600480360360208110156100bb57600080fd5b81019080803590602001906401000000008111156100d857600080fd5b8201836020820111156100ea57600080fd5b8035906020019184600183028401116401000000008311171561010c57600080fd5b91908080601f016020809104026020016040519081016040528093929190818152602001838380828437600081840152601f19601f8201169050808301925050505050505091929192905050506107de565b604051808215151515815260200191505060405180910390f35b61018061064a565b005b34801561018e57600080fd5b50610286600480360360a08110156101a557600080fd5b81019080803590602001909291908035906020019092919080359060200190929190803590602001906401000000008111156101e057600080fd5b8201836020820111156101f257600080fd5b8035906020019184600183028401116401000000008311171561021457600080fd5b91908080601f016020809104026020016040519081016040528093929190818152602001838380828437600081840152601f19601f820116905080830192505050505050509192919290803573ffffffffffffffffffffffffffffffffffffffff16906020019092919050505061089c565b005b34801561029457600080fd5b506102d7600480360360208110156102ab57600080fd5b81019080803573ffffffffffffffffffffffffffffffffffffffff169060200190929190505050610ae0565b60405180831515151581526020018281526020019250505060405180910390f35b34801561030457600080fd5b5061030d610bb8565b6040518082815260200191505060405180910390f35b34801561032f57600080fd5b506104806004803603604081101561034657600080fd5b810190808035906020019064010000000081111561036357600080fd5b82018360208201111561037557600080fd5b8035906020019184600183028401116401000000008311171561039757600080fd5b91908080601f016020809104026020016040519081016040528093929190818152602001838380828437600081840152601f19601f820116905080830192505050505050509192919290803590602001906401000000008111156103fa57600080fd5b82018360208201111561040c57600080fd5b8035906020019184600183028401116401000000008311171561042e57600080fd5b91908080601f016020809104026020016040519081016040528093929190818152602001838380828437600081840152601f19601f820116905080830192505050505050509192919290505050610bc2565b6040518080602001828103825283818151815260200191508051906020019080838360005b838110156104c05780820151818401526020810190506104a5565b50505050905090810190601f1680156104ed5780820380516001836020036101000a031916815260200191505b509250505060405180910390f35b34801561050757600080fd5b50610510610df8565b604051808060200180602001838103835285818151815260200191508051906020019060200280838360005b8381101561055757808201518184015260208101905061053c565b50505050905001838103825284818151815260200191508051906020019060200280838360005b8381101561059957808201518184015260208101905061057e565b5050505090500194505050505060405180910390f35b610630600480360360408110156105c557600080fd5b81019080803590602001906401000000008111156105e257600080fd5b8201836020820111156105f457600080fd5b8035906020019184600183028401116401000000008311171561061657600080fd5b909192939192939080359060200190929190505050610f62565b604051808215151515815260200191505060405180910390f35b60008061065633610ae0565b80935081925050508015806106d357508080156106d2575060008281548110151561067d57fe5b906000526020600020906008020160070160009054906101000a900460ff16806106d157506000828154811015156106b157fe5b906000526020600020906008020160070160019054906101000a900460ff165b5b5b156107445760006106e33461114b565b90503373ffffffffffffffffffffffffffffffffffffffff166108fc829081150290604051600060405180830381858888f1935050505015801561072b573d6000803e3d6000fd5b50806003600082825403925050819055505050506107dc565b600160008381548110151561075557fe5b906000526020600020906008020160070160006101000a81548160ff02191690831515021790555060048290806001815401808255809150509060018203906000526020600020016000909192909190915055506000828154811015156107b857fe5b90600052602060002090600802016002015460036000828254019250508190555050505b565b60006002546002836040518082805190602001908083835b60208310151561081b57805182526020820191506020810190506020830392506107f6565b6001836020036101000a038019825116818451168082178552505050505050905001915050602060405180830381855afa15801561085d573d6000803e3d6000fd5b5050506040513d602081101561087257600080fd5b810190808051906020019092919050505014156108925760019050610897565b600090505b919050565b6000806108a883610ae0565b80925081935050508180156108e857506000818154811015156108c757fe5b906000526020600020906008020160070160009054906101000a900460ff16155b156109275760016000828154811015156108fe57fe5b906000526020600020906008020160070160016101000a81548160ff0219169083151502179055505b61092f61115f565b878160200181815250508681604001818152505085816080018181525050848160a0018190525060008160e001901515908115158152505060008161010001901515908115158152505083816000019073ffffffffffffffffffffffffffffffffffffffff16908173ffffffffffffffffffffffffffffffffffffffff16815250503a8160600181815250506000819080600181540180825580915050906001820390600052602060002090600802016000909192909190915060008201518160000160006101000a81548173ffffffffffffffffffffffffffffffffffffffff021916908373ffffffffffffffffffffffffffffffffffffffff1602179055506020820151816001015560408201518160020155606082015181600301556080820151816004015560a0820151816005019080519060200190610a749291906111c6565b5060c0820151816006019080519060200190610a919291906111c6565b5060e08201518160070160006101000a81548160ff0219169083151502179055506101008201518160070160016101000a81548160ff0219169083151502179055505050505050505050505050565b60008060016000805490501015610b005760008080905091509150610bb3565b600060016000805490500390505b600081101515610ba7578373ffffffffffffffffffffffffffffffffffffffff16600082815481101515610b3e57fe5b906000526020600020906008020160000160009054906101000a900473ffffffffffffffffffffffffffffffffffffffff1673ffffffffffffffffffffffffffffffffffffffff161415610b99576001819250925050610bb3565b808060019003915050610b0e565b60008080905092509250505b915091565b6000600354905090565b6060600160009054906101000a900473ffffffffffffffffffffffffffffffffffffffff1673ffffffffffffffffffffffffffffffffffffffff163373ffffffffffffffffffffffffffffffffffffffff16148015610cc157506002546002846040518082805190602001908083835b602083101515610c575780518252602082019150602081019050602083039250610c32565b6001836020036101000a038019825116818451168082178552505050505050905001915050602060405180830381855afa158015610c99573d6000803e3d6000fd5b5050506040513d6020811015610cae57600080fd5b8101908080519060200190929190505050145b15610da9576002826040518082805190602001908083835b602083101515610cfe5780518252602082019150602081019050602083039250610cd9565b6001836020036101000a038019825116818451168082178552505050505050905001915050602060405180830381855afa158015610d40573d6000803e3d6000fd5b5050506040513d6020811015610d5557600080fd5b81019080805190602001909291905050506002819055506040805190810160405280601e81526020017f50617373776f7264206368616e676564207375636365737366756c6c792e00008152509050610df2565b3a6003600082825403925050819055506040805190810160405280601e81526020017f50617373776f7264206f72206163636f756e74206172652077726f6e672e000081525090505b92915050565b6060806060600080549050604051908082528060200260200182016040528015610e315781602001602082028038833980820191505090505b5090506060600080549050604051908082528060200260200182016040528015610e6a5781602001602082028038833980820191505090505b50905060008090505b600080549050811015610f5557600081815481101515610e8f57fe5b906000526020600020906008020160000160009054906101000a900473ffffffffffffffffffffffffffffffffffffffff168382815181101515610ecf57fe5b9060200190602002019073ffffffffffffffffffffffffffffffffffffffff16908173ffffffffffffffffffffffffffffffffffffffff1681525050600081815481101515610f1a57fe5b9060005260206000209060080201600201548282815181101515610f3a57fe5b90602001906020020181815250508080600101915050610e73565b5081819350935050509091565b6000606084848080601f016020809104026020016040519081016040528093929190818152602001838380828437600081840152601f19601f8201169050808301925050505050505090506002546002826040518082805190602001908083835b602083101515610fe85780518252602082019150602081019050602083039250610fc3565b6001836020036101000a038019825116818451168082178552505050505050905001915050602060405180830381855afa15801561102a573d6000803e3d6000fd5b5050506040513d602081101561103f57600080fd5b81019080805190602001909291905050501480156110aa5750600160009054906101000a900473ffffffffffffffffffffffffffffffffffffffff1673ffffffffffffffffffffffffffffffffffffffff163373ffffffffffffffffffffffffffffffffffffffff16145b1561112e578260035410151561112d57600160009054906101000a900473ffffffffffffffffffffffffffffffffffffffff1673ffffffffffffffffffffffffffffffffffffffff166108fc849081150290604051600060405180830381858888f19350505050158015611122573d6000803e3d6000fd5b506001915050611144565b5b3a60036000828254039250508190555060009150505b9392505050565b60008060023a028303905080915050919050565b61012060405190810160405280600073ffffffffffffffffffffffffffffffffffffffff1681526020016000815260200160008152602001600081526020016000815260200160608152602001606081526020016000151581526020016000151581525090565b828054600181600116156101000203166002900490600052602060002090601f016020900481019282601f1061120757805160ff1916838001178555611235565b82800160010185558215611235579182015b82811115611234578251825591602001919060010190611219565b5b5090506112429190611246565b5090565b61126891905b8082111561126457600081600090555060010161124c565b5090565b9056fea165627a7a7230582050167001089740fced8ff78cbca63befd9af96392ef6b08c8277bf64a78f59d10029",
  "source": "pragma solidity >=0.4.21 <0.6.0;\n\ncontract PaymentHolder{\n\n\n    struct Payment {\n        address payable user_wallet;\n        uint256 paymentId;\n        uint256 price;\n        uint256 gasUsed;\n        uint256 userId;\n        string  paymentToken;\n        string  timestamp;\n        bool    confirmed;\n        bool    canceled;\n    }\n\n    Payment[] payments;\n    address payable owner;\n    bytes32 private passphrase;\n    uint256 balance;\n    uint256[] confirmedPayments;\n\n\n    constructor (string memory passwd) public\n    {\n        bytes memory _passwd = bytes(passwd);\n        balance = 0;\n        owner = msg.sender;\n        passphrase = sha256(_passwd);\n    }\n\n    function insertPaymentIntention\n        (uint256 paymentId, uint256 price, uint userId, string memory paymentToken, address payable user_wallet)\n        public\n    {\n        bool found;\n        uint idx;\n        (found, idx) = searchPayment(user_wallet);\n        if(found && !payments[idx].confirmed) payments[idx].canceled = true;\n\n        Payment memory p;\n        p.paymentId = paymentId;\n        p.price = price;\n        p.userId = userId;\n        p.paymentToken = paymentToken;\n        p.confirmed = false;\n        p.canceled = false;\n        p.user_wallet = user_wallet;\n        p.gasUsed = tx.gasprice;\n\n        payments.push(p);\n\n    }\n\n    function () external payable {\n        pay();\n    }\n\n    function pay() public payable\n    {\n        uint idx;\n        bool found;\n\n        (found, idx) = searchPayment(msg.sender);\n\n        if(!found || (found && (payments[idx].confirmed || payments[idx].canceled))){\n            uint256 amountToReturn = amountToReturn(msg.value);\n            msg.sender.transfer(amountToReturn);\n            balance -= amountToReturn;\n            return;\n        }\n        payments[idx].confirmed = true;\n        confirmedPayments.push(idx);\n\n        balance += payments[idx].price;\n    }\n\n    function getPayments() public view\n        returns (address[] memory, uint256[] memory)\n    {\n        address[] memory addr = new address[](payments.length);\n        uint[] memory prices = new uint[](payments.length);\n\n        for(uint i = 0; i < payments.length; i++){\n            addr[i] = payments[i].user_wallet;\n            prices[i] = payments[i].price;\n        }\n        return (addr, prices);\n    }\n\n    function searchPayment(address addr) public view\n        returns (bool found, uint idx)\n    {\n        if(payments.length < 1) return (false, 0);\n\n        uint i = payments.length - 1;\n\n        while(i>=0){\n            if((payments[i].user_wallet == addr)){\n                return (true, i);\n            }\n            i--;\n        }\n        return (false, 0);\n    }\n\n    function amountToReturn(uint256 amount) private view\n        returns (uint256 returnable)\n    {\n        uint256 realValue;\n        realValue = amount-tx.gasprice*2;\n\n        return (realValue);\n    }\n\n    function getContractBalance() public view\n        returns (uint256 contractBalance)\n    {\n        return balance;\n    }\n\n    function retrievePayment(string calldata passwd, uint256 amount) external payable\n        returns (bool res)\n    {\n        bytes memory _passwd = bytes(passwd);\n        if(sha256(_passwd) == passphrase && msg.sender == owner){\n            if(balance >= amount){\n                owner.transfer(amount);\n                return true;\n            }\n        }\n        balance -= tx.gasprice;\n        return false;\n    }\n\n    function ressetPassphrase(string memory current, string memory newPassphrase) public\n        returns (string memory res)\n    {\n        if(msg.sender == owner && sha256(bytes(current)) == passphrase){\n            passphrase = sha256(bytes(newPassphrase));\n            return (\"Password changed successfully.\");\n        }\n        balance -= tx.gasprice;\n        return (\"Password or account are wrong.\");\n    }\n\n    function checkPassphrase(string memory pwd) public view\n        returns (bool res)\n    {\n        if(sha256(bytes(pwd)) == passphrase) return true;\n        return false;\n    }\n\n}",
  "sourcePath": "/home/andremury/vhosts/ether-payment/truffle/contracts/PaymentHolder.sol",
  "compiler": {
    "name": "solc",
    "version": "0.5.0+commit.1d4f565a.Emscripten.clang"
  },
  "schemaVersion": "3.0.8",
  "updatedAt": "2019-05-07T18:17:31.806Z",
  "devdoc": {
    "methods": {}
  },
  "userdoc": {
    "methods": {}
  }
}