{
  "contractName": "PaymentHolder",
  "abi": [
    {
      "inputs": [],
      "payable": false,
      "stateMutability": "nonpayable",
      "type": "constructor",
      "signature": "constructor"
    },
    {
      "payable": true,
      "stateMutability": "payable",
      "type": "fallback"
    },
    {
      "constant": false,
      "inputs": [
        {
          "name": "paymentId",
          "type": "uint256"
        },
        {
          "name": "price",
          "type": "uint256"
        },
        {
          "name": "userId",
          "type": "uint256"
        },
        {
          "name": "paymentToken",
          "type": "string"
        },
        {
          "name": "user_wallet",
          "type": "address"
        }
      ],
      "name": "insertPaymentIntention",
      "outputs": [],
      "payable": false,
      "stateMutability": "nonpayable",
      "type": "function",
      "signature": "0x31038167"
    },
    {
      "constant": false,
      "inputs": [],
      "name": "pay",
      "outputs": [],
      "payable": true,
      "stateMutability": "payable",
      "type": "function",
      "signature": "0x1b9265b8"
    },
    {
      "constant": true,
      "inputs": [
        {
          "name": "status",
          "type": "uint256"
        }
      ],
      "name": "getPayments",
      "outputs": [
        {
          "name": "",
          "type": "address[]"
        },
        {
          "name": "",
          "type": "uint256[]"
        }
      ],
      "payable": false,
      "stateMutability": "view",
      "type": "function",
      "signature": "0xfe365199"
    },
    {
      "constant": true,
      "inputs": [
        {
          "name": "addr",
          "type": "address"
        }
      ],
      "name": "searchPayment",
      "outputs": [
        {
          "name": "found",
          "type": "bool"
        },
        {
          "name": "idx",
          "type": "uint256"
        },
        {
          "name": "value",
          "type": "uint256"
        }
      ],
      "payable": false,
      "stateMutability": "view",
      "type": "function",
      "signature": "0x5af8b662"
    },
    {
      "constant": true,
      "inputs": [],
      "name": "getContractBalance",
      "outputs": [
        {
          "name": "contractBalance",
          "type": "uint256"
        }
      ],
      "payable": false,
      "stateMutability": "view",
      "type": "function",
      "signature": "0x6f9fb98a"
    },
    {
      "constant": false,
      "inputs": [],
      "name": "flushBalance",
      "outputs": [],
      "payable": true,
      "stateMutability": "payable",
      "type": "function",
      "signature": "0xb59bb621"
    }
  ],
  "bytecode": "0x608060405234801561001057600080fd5b5033600160006101000a81548173ffffffffffffffffffffffffffffffffffffffff021916908373ffffffffffffffffffffffffffffffffffffffff1602179055506110e2806100616000396000f3fe608060405260043610610078576000357c0100000000000000000000000000000000000000000000000000000000900463ffffffff1680631b9265b8146100e657806331038167146100f05780635af8b662146101f65780636f9fb98a1461026d578063b59bb62114610298578063fe365199146102a2575b600160009054906101000a900473ffffffffffffffffffffffffffffffffffffffff1673ffffffffffffffffffffffffffffffffffffffff163373ffffffffffffffffffffffffffffffffffffffff1614156100db576100d661037a565b6100e4565b6100e36103fc565b5b005b6100ee6103fc565b005b3480156100fc57600080fd5b506101f4600480360360a081101561011357600080fd5b810190808035906020019092919080359060200190929190803590602001909291908035906020019064010000000081111561014e57600080fd5b82018360208201111561016057600080fd5b8035906020019184600183028401116401000000008311171561018257600080fd5b91908080601f016020809104026020016040519081016040528093929190818152602001838380828437600081840152601f19601f820116905080830192505050505050509192919290803573ffffffffffffffffffffffffffffffffffffffff1690602001909291905050506105bf565b005b34801561020257600080fd5b506102456004803603602081101561021957600080fd5b81019080803573ffffffffffffffffffffffffffffffffffffffff169060200190929190505050610805565b6040518084151515158152602001838152602001828152602001935050505060405180910390f35b34801561027957600080fd5b5061028261091c565b6040518082815260200191505060405180910390f35b6102a061037a565b005b3480156102ae57600080fd5b506102db600480360360208110156102c557600080fd5b810190808035906020019092919050505061093b565b604051808060200180602001838103835285818151815260200191508051906020019060200280838360005b83811015610322578082015181840152602081019050610307565b50505050905001838103825284818151815260200191508051906020019060200280838360005b83811015610364578082015181840152602081019050610349565b5050505090500194505050505060405180910390f35b600160009054906101000a900473ffffffffffffffffffffffffffffffffffffffff1673ffffffffffffffffffffffffffffffffffffffff166108fc3073ffffffffffffffffffffffffffffffffffffffff16319081150290604051600060405180830381858888f193505050501580156103f9573d6000803e3d6000fd5b50565b600080600061040a33610805565b80945081955082935050505080158061042257508134105b1561048457600061043234610ba8565b90503373ffffffffffffffffffffffffffffffffffffffff166108fc829081150290604051600060405180830381858888f1935050505015801561047a573d6000803e3d6000fd5b50505050506105bd565b600260008481548110151561049557fe5b9060005260206000209060070201908060018154018082558091505090600182039060005260206000209060070201600090919290919091506000820160009054906101000a900473ffffffffffffffffffffffffffffffffffffffff168160000160006101000a81548173ffffffffffffffffffffffffffffffffffffffff021916908373ffffffffffffffffffffffffffffffffffffffff1602179055506001820154816001015560028201548160020155600382015481600301556004820154816004015560058201816005019080546001816001161561010002031660029004610584929190610e36565b50600682018160060190805460018160011615610100020316600290046105ac929190610e36565b505050506105b983610bbc565b5050505b565b60008060006105cd84610805565b8093508194508295505050506105e1610ebd565b888160200181815250508781604001818152505086816080018181525050858160a0018190525084816000019073ffffffffffffffffffffffffffffffffffffffff16908173ffffffffffffffffffffffffffffffffffffffff16815250503a816060018181525050831561071f578060008481548110151561066057fe5b906000526020600020906007020160008201518160000160006101000a81548173ffffffffffffffffffffffffffffffffffffffff021916908373ffffffffffffffffffffffffffffffffffffffff1602179055506020820151816001015560408201518160020155606082015181600301556080820151816004015560a08201518160050190805190602001906106f9929190610f11565b5060c0820151816006019080519060200190610716929190610f11565b509050506107fa565b6000819080600181540180825580915050906001820390600052602060002090600702016000909192909190915060008201518160000160006101000a81548173ffffffffffffffffffffffffffffffffffffffff021916908373ffffffffffffffffffffffffffffffffffffffff1602179055506020820151816001015560408201518160020155606082015181600301556080820151816004015560a08201518160050190805190602001906107d8929190610f11565b5060c08201518160060190805190602001906107f5929190610f11565b505050505b505050505050505050565b60008060006001600080549050101561082e576000806000819150809050925092509250610915565b600060016000805490500390505b600081101515610902578473ffffffffffffffffffffffffffffffffffffffff1660008281548110151561086c57fe5b906000526020600020906007020160000160009054906101000a900473ffffffffffffffffffffffffffffffffffffffff1673ffffffffffffffffffffffffffffffffffffffff1614156108f457600181670de0b6b3a76400006000848154811015156108d557fe5b9060005260206000209060070201600201540293509350935050610915565b80806001900391505061083c565b6000806000819150809050935093509350505b9193909250565b60003073ffffffffffffffffffffffffffffffffffffffff1631905090565b60608060606000805490506040519080825280602002602001820160405280156109745781602001602082028038833980820191505090505b50905060606000805490506040519080825280602002602001820160405280156109ad5781602001602082028038833980820191505090505b5090506001851415610aa75760008090505b600080549050811015610aa1576000818154811015156109db57fe5b906000526020600020906007020160000160009054906101000a900473ffffffffffffffffffffffffffffffffffffffff168382815181101515610a1b57fe5b9060200190602002019073ffffffffffffffffffffffffffffffffffffffff16908173ffffffffffffffffffffffffffffffffffffffff1681525050600081815481101515610a6657fe5b9060005260206000209060070201600201548282815181101515610a8657fe5b906020019060200201818152505080806001019150506109bf565b50610b9b565b6002851415610b9a5760008090505b600080549050811015610b9857600281815481101515610ad257fe5b906000526020600020906007020160000160009054906101000a900473ffffffffffffffffffffffffffffffffffffffff168382815181101515610b1257fe5b9060200190602002019073ffffffffffffffffffffffffffffffffffffffff16908173ffffffffffffffffffffffffffffffffffffffff1681525050600281815481101515610b5d57fe5b9060005260206000209060070201600201548282815181101515610b7d57fe5b90602001906020020181815250508080600101915050610ab6565b505b5b8181935093505050915091565b60008060023a028303905080915050919050565b60008054905081108015610bd857506001600080549050038114155b15610d95576000600160008054905003815481101515610bf457fe5b9060005260206000209060070201600082815481101515610c1157fe5b90600052602060002090600702016000820160009054906101000a900473ffffffffffffffffffffffffffffffffffffffff168160000160006101000a81548173ffffffffffffffffffffffffffffffffffffffff021916908373ffffffffffffffffffffffffffffffffffffffff1602179055506001820154816001015560028201548160020155600382015481600301556004820154816004015560058201816005019080546001816001161561010002031660029004610cd5929190610e36565b5060068201816006019080546001816001161561010002031660029004610cfd929190610e36565b509050506000600160008054905003815481101515610d1857fe5b9060005260206000209060070201600080820160006101000a81549073ffffffffffffffffffffffffffffffffffffffff02191690556001820160009055600282016000905560038201600090556004820160009055600582016000610d7e9190610f91565b600682016000610d8e9190610f91565b5050610e1d565b600081815481101515610da457fe5b9060005260206000209060070201600080820160006101000a81549073ffffffffffffffffffffffffffffffffffffffff02191690556001820160009055600282016000905560038201600090556004820160009055600582016000610e0a9190610f91565b600682016000610e1a9190610f91565b50505b6000805480919060019003610e329190610fd9565b5050565b828054600181600116156101000203166002900490600052602060002090601f016020900481019282601f10610e6f5780548555610eac565b82800160010185558215610eac57600052602060002091601f016020900482015b82811115610eab578254825591600101919060010190610e90565b5b509050610eb9919061100b565b5090565b60e060405190810160405280600073ffffffffffffffffffffffffffffffffffffffff1681526020016000815260200160008152602001600081526020016000815260200160608152602001606081525090565b828054600181600116156101000203166002900490600052602060002090601f016020900481019282601f10610f5257805160ff1916838001178555610f80565b82800160010185558215610f80579182015b82811115610f7f578251825591602001919060010190610f64565b5b509050610f8d919061100b565b5090565b50805460018160011615610100020316600290046000825580601f10610fb75750610fd6565b601f016020900490600052602060002090810190610fd5919061100b565b5b50565b815481835581811115611006576007028160070283600052602060002091820191016110059190611030565b5b505050565b61102d91905b80821115611029576000816000905550600101611011565b5090565b90565b6110b391905b808211156110af57600080820160006101000a81549073ffffffffffffffffffffffffffffffffffffffff021916905560018201600090556002820160009055600382016000905560048201600090556005820160006110969190610f91565b6006820160006110a69190610f91565b50600701611036565b5090565b9056fea165627a7a72305820d2a2ac4cc6db1a974c97602386c44bdf9a2279a22259523fd157512659f4f2b00029",
  "source": "pragma solidity >=0.4.21 <0.6.0;\n\ncontract PaymentHolder{\n\n\n    struct Payment {\n        address payable user_wallet;\n        uint256 paymentId;\n        uint256 price;\n        uint256 gasUsed;\n        uint256 userId;\n        string  paymentToken;\n        string  timestamp;\n    }\n\n    Payment[] payments;\n    address payable owner;\n    Payment[] confirmedPayments;\n\n\n    constructor () public\n    {\n        owner = msg.sender;\n    }\n\n    function insertPaymentIntention\n        (uint256 paymentId, uint256 price, uint userId, string memory paymentToken, address payable user_wallet)\n        public\n    {\n        bool found;\n        uint idx;\n        uint value;\n        (found, idx, value) = searchPayment(user_wallet);\n\n\n        Payment memory p;\n        p.paymentId = paymentId;\n        p.price = price;\n        p.userId = userId;\n        p.paymentToken = paymentToken;\n        p.user_wallet = user_wallet;\n        p.gasUsed = tx.gasprice;\n\n        if(found){\n            payments[idx] = p;\n        }else{\n            payments.push(p);\n        }\n\n    }\n\n    function () external payable {\n        if (msg.sender == owner){\n            flushBalance();\n        }else{\n            pay();\n        }\n    }\n\n    function pay() public payable\n    {\n        uint idx;\n        uint value;\n        bool found;\n\n        (found, idx, value) = searchPayment(msg.sender);\n\n        if(!found || msg.value < value){\n            uint256 amountToReturn = amountToReturn(msg.value);\n            msg.sender.transfer(amountToReturn);\n            return;\n        }\n\n            confirmedPayments.push(payments[idx]);\n            removePaidPayment(idx);\n        return;\n    }\n\n    function getPayments(uint status) public view\n        returns (address[] memory, uint256[] memory)\n    {\n        address[] memory addr = new address[](payments.length);\n        uint[] memory prices = new uint[](payments.length);\n        //1 open\n        if(status == 1){\n            for(uint i = 0; i < payments.length; i++){\n                addr[i] = payments[i].user_wallet;\n                prices[i] = payments[i].price;\n            }\n        //2 confirmed\n        }else if(status == 2){\n            for(uint i = 0; i < payments.length; i++){\n                addr[i] = confirmedPayments[i].user_wallet;\n                prices[i] = confirmedPayments[i].price;\n            }\n        }\n        return (addr, prices);\n    }\n\n    function searchPayment(address addr) public view\n        returns (bool found, uint idx, uint value)\n    {\n        if(payments.length < 1) return (false, 0, 0);\n\n        uint i = payments.length - 1;\n\n        while(i>=0){\n            if((payments[i].user_wallet == addr)){\n                return (true, i, payments[i].price*(10**18));\n            }\n            i--;\n        }\n        return (false, 0, 0);\n    }\n\n    function amountToReturn(uint256 amount) private view\n        returns (uint256 returnable)\n    {\n        uint256 realValue;\n        realValue = amount-tx.gasprice*2;\n\n        return (realValue);\n    }\n\n    function getContractBalance() public view\n        returns (uint256 contractBalance)\n    {\n        return address(this).balance;\n    }\n\n    function flushBalance() public payable\n    {\n        owner.transfer(address(this).balance);\n    }\n\n    function removePaidPayment(uint idx) private\n    {\n        if(idx < payments.length && idx != payments.length - 1){\n            payments[idx] = payments[payments.length - 1];\n            delete payments[payments.length - 1];\n        }else{\n            delete payments[idx];\n        }\n        payments.length--;\n    }\n\n}",
  "sourcePath": "/home/andremury/vhosts/ether-payment/truffle/contracts/PaymentHolder.sol",
  "compiler": {
    "name": "solc",
    "version": "0.5.0+commit.1d4f565a.Emscripten.clang"
  },
  "schemaVersion": "3.0.8",
  "updatedAt": "2019-05-22T04:32:41.560Z",
  "devdoc": {
    "methods": {}
  },
  "userdoc": {
    "methods": {}
  }
}